{
  "_format": "hh-sol-artifact-1",
  "contractName": "Token",
  "sourceName": "contracts/Token.sol",
  "abi": [
    {
      "inputs": [
        {
          "internalType": "uint256",
          "name": "_totalSupply",
          "type": "uint256"
        }
      ],
      "stateMutability": "nonpayable",
      "type": "constructor"
    },
    {
      "inputs": [
        {
          "internalType": "address",
          "name": "_address",
          "type": "address"
        }
      ],
      "name": "balanceOf",
      "outputs": [
        {
          "internalType": "uint256",
          "name": "result",
          "type": "uint256"
        }
      ],
      "stateMutability": "view",
      "type": "function"
    },
    {
      "inputs": [],
      "name": "getTotalSupply",
      "outputs": [
        {
          "internalType": "uint256",
          "name": "_totalSupply",
          "type": "uint256"
        }
      ],
      "stateMutability": "view",
      "type": "function"
    },
    {
      "inputs": [],
      "name": "name",
      "outputs": [
        {
          "internalType": "string",
          "name": "",
          "type": "string"
        }
      ],
      "stateMutability": "view",
      "type": "function"
    },
    {
      "inputs": [
        {
          "internalType": "uint256",
          "name": "_amount",
          "type": "uint256"
        },
        {
          "internalType": "address",
          "name": "_to",
          "type": "address"
        }
      ],
      "name": "transfer",
      "outputs": [],
      "stateMutability": "nonpayable",
      "type": "function"
    }
  ],
  "bytecode": "0x60806040523480156200001157600080fd5b5060405162000afa38038062000afa83398181016040528101906200003791906200023f565b6200006760405180606001604052806032815260200162000ac860329139826200013060201b620002971760201c565b336000806101000a81548173ffffffffffffffffffffffffffffffffffffffff021916908373ffffffffffffffffffffffffffffffffffffffff16021790555080600181905550600154600260008060009054906101000a900473ffffffffffffffffffffffffffffffffffffffff1673ffffffffffffffffffffffffffffffffffffffff1673ffffffffffffffffffffffffffffffffffffffff1681526020019081526020016000206000828254620001229190620002a0565b9250508190555050620003e6565b620001d2828260405160240162000149929190620003b2565b6040516020818303038152906040527f9710a9d0000000000000000000000000000000000000000000000000000000007bffffffffffffffffffffffffffffffffffffffffffffffffffffffff19166020820180517bffffffffffffffffffffffffffffffffffffffffffffffffffffffff8381831617835250505050620001d660201b60201c565b5050565b60008151905060006a636f6e736f6c652e6c6f679050602083016000808483855afa5050505050565b600080fd5b6000819050919050565b620002198162000204565b81146200022557600080fd5b50565b60008151905062000239816200020e565b92915050565b600060208284031215620002585762000257620001ff565b5b6000620002688482850162000228565b91505092915050565b7f4e487b7100000000000000000000000000000000000000000000000000000000600052601160045260246000fd5b6000620002ad8262000204565b9150620002ba8362000204565b9250827fffffffffffffffffffffffffffffffffffffffffffffffffffffffffffffffff03821115620002f257620002f162000271565b5b828201905092915050565b600081519050919050565b600082825260208201905092915050565b60005b83811015620003395780820151818401526020810190506200031c565b8381111562000349576000848401525b50505050565b6000601f19601f8301169050919050565b60006200036d82620002fd565b62000379818562000308565b93506200038b81856020860162000319565b62000396816200034f565b840191505092915050565b620003ac8162000204565b82525050565b60006040820190508181036000830152620003ce818562000360565b9050620003df6020830184620003a1565b9392505050565b6106d280620003f66000396000f3fe608060405234801561001057600080fd5b506004361061004c5760003560e01c806306fdde031461005157806370a082311461006f578063b7760c8f1461009f578063c4e41b22146100bb575b600080fd5b6100596100d9565b60405161006691906103f5565b60405180910390f35b6100896004803603810190610084919061047a565b610112565b60405161009691906104c0565b60405180910390f35b6100b960048036038101906100b49190610507565b61015b565b005b6100c361028d565b6040516100d091906104c0565b60405180910390f35b6040518060400160405280600481526020017f484148410000000000000000000000000000000000000000000000000000000081525081565b6000600260008373ffffffffffffffffffffffffffffffffffffffff1673ffffffffffffffffffffffffffffffffffffffff168152602001908152602001600020549050919050565b81600260003373ffffffffffffffffffffffffffffffffffffffff1673ffffffffffffffffffffffffffffffffffffffff1681526020019081526020016000205410156101dd576040517f08c379a00000000000000000000000000000000000000000000000000000000081526004016101d490610593565b60405180910390fd5b81600260003373ffffffffffffffffffffffffffffffffffffffff1673ffffffffffffffffffffffffffffffffffffffff168152602001908152602001600020600082825461022c91906105e2565b9250508190555081600260008373ffffffffffffffffffffffffffffffffffffffff1673ffffffffffffffffffffffffffffffffffffffff16815260200190815260200160002060008282546102829190610616565b925050819055505050565b6000600154905090565b61032f82826040516024016102ad92919061066c565b6040516020818303038152906040527f9710a9d0000000000000000000000000000000000000000000000000000000007bffffffffffffffffffffffffffffffffffffffffffffffffffffffff19166020820180517bffffffffffffffffffffffffffffffffffffffffffffffffffffffff8381831617835250505050610333565b5050565b60008151905060006a636f6e736f6c652e6c6f679050602083016000808483855afa5050505050565b600081519050919050565b600082825260208201905092915050565b60005b8381101561039657808201518184015260208101905061037b565b838111156103a5576000848401525b50505050565b6000601f19601f8301169050919050565b60006103c78261035c565b6103d18185610367565b93506103e1818560208601610378565b6103ea816103ab565b840191505092915050565b6000602082019050818103600083015261040f81846103bc565b905092915050565b600080fd5b600073ffffffffffffffffffffffffffffffffffffffff82169050919050565b60006104478261041c565b9050919050565b6104578161043c565b811461046257600080fd5b50565b6000813590506104748161044e565b92915050565b6000602082840312156104905761048f610417565b5b600061049e84828501610465565b91505092915050565b6000819050919050565b6104ba816104a7565b82525050565b60006020820190506104d560008301846104b1565b92915050565b6104e4816104a7565b81146104ef57600080fd5b50565b600081359050610501816104db565b92915050565b6000806040838503121561051e5761051d610417565b5b600061052c858286016104f2565b925050602061053d85828601610465565b9150509250929050565b7f4e6f7420656e6f7567682066756e647300000000000000000000000000000000600082015250565b600061057d601083610367565b915061058882610547565b602082019050919050565b600060208201905081810360008301526105ac81610570565b9050919050565b7f4e487b7100000000000000000000000000000000000000000000000000000000600052601160045260246000fd5b60006105ed826104a7565b91506105f8836104a7565b92508282101561060b5761060a6105b3565b5b828203905092915050565b6000610621826104a7565b915061062c836104a7565b9250827fffffffffffffffffffffffffffffffffffffffffffffffffffffffffffffffff03821115610661576106606105b3565b5b828201905092915050565b6000604082019050818103600083015261068681856103bc565b905061069560208301846104b1565b939250505056fea2646970667358221220fab2ac0f32d689fc89321023a011b4f2594e036146b35e08e32e402692c9150764736f6c634300080800334465706c6f79696e672074686520636f6e7472616374212c2077697468206120746f74616c537570706c79206f66202d2d3e",
  "linkReferences": {},
  "deployedLinkReferences": {}
}